:100000000C9462000C947F000C947F000C947F0091
:100010000C947F000C947F000C947F000C947F0064
:100020000C947F000C947F000C947F000C947F0054
:100030000C947F000C947F000C947F000C947F0044
:100040000C94D6030C947F000C947F000C947F00DA
:100050000C947F000C947F000C947F000C947F0024
:100060000C947F000C947F00000000002300260009
:10007000290000000000240027002A0000000000E2
:10008000250028002B0004040404040404040202D4
:100090000202020203030303030301020408102007
:1000A0004080010204081020010204081020000012
:1000B0000008000201000003040700000000000027
:1000C0000000B60411241FBECFEFD8E0DEBFCDBFC5
:1000D00021E0A0E0B1E001C01D92A738B207E1F72E
:1000E00010E0C2E6D0E004C02197FE010E942D0579
:1000F000C136D107C9F70E9420040C9433050C9433
:100100000000833081F028F4813099F08230A9F02A
:1001100008958730A9F08830C9F08430B1F4809117
:1001200080008F7D03C0809180008F778093800056
:10013000089584B58F7784BD089584B58F7DFBCFF6
:100140008091B0008F778093B00008958091B000C7
:100150008F7DF9CF1F93CF93DF93282F30E0F901E4
:10016000E255FF4F8491F901E656FF4FD491F90112
:10017000EA57FF4FC491CC23A9F0162F81110E949A
:100180008100EC2FF0E0EE0FFF1FE458FF4FA59128
:10019000B4918FB7F894EC91111108C0D095DE237B
:1001A000DC938FBFDF91CF911F910895DE2BF8CFA5
:1001B000CF93DF9390E0FC01E656FF4F24918A57DE
:1001C0009F4FFC0184918823C9F090E0880F991F0C
:1001D000FC01EE58FF4FA591B491FC01E458FF4F8C
:1001E000C591D49161110DC09FB7F8948C91209561
:1001F00082238C938881282328839FBFDF91CF910E
:100200000895623051F49FB7F8943C91822F809505
:1002100083238C93E8812E2BEFCF8FB7F894EC914A
:100220002E2B2C938FBFEACF3FB7F8948091070114
:1002300090910801A0910901B0910A0126B5A89BEF
:1002400005C02F3F19F00196A11DB11D3FBFBA2F68
:10025000A92F982F8827BC01CD01620F711D811D28
:10026000911D42E0660F771F881F991F4A95D1F7AD
:1002700008958F929F92AF92BF92CF92DF92EF92AA
:10028000FF926B017C010E9414014B015C01C114BF
:10029000D104E104F104B9F00E941401681979094C
:1002A0008A099B09683E73408105910580F321E02E
:1002B000C21AD108E108F10888EE880E83E0981E82
:1002C000A11CB11CE4CFFF90EF90DF90CF90BF90C6
:1002D000AF909F908F9008958F929F92AF92BF9210
:1002E000CF92DF92EF92FF921F93CF93DF93FC01A7
:1002F0002081318137FD62C0EC013327F901E255DD
:10030000FF4F8491F901E656FF4FF490F901EA5747
:10031000FF4F1491112389F181110E948100E12F77
:10032000F0E0EE0FFF1FE859FF4FA591B491EC915B
:10033000FE2231E020E009F430E0832F922F28855F
:1003400039854FB7F894C0900301D0900401E09034
:100350000501F09006014FBF4BA55CA54115510565
:1003600079F42817390751F581E090E09CA78BA715
:10037000CDA6DEA6EFA6F8AA21C090E080E0DFCFF0
:100380004130510509F05AC04DA55EA56FA578A969
:1003900046015701841A950AA60AB70AB501A401B5
:1003A0002817390701F18A819B81B0E0A0E0481746
:1003B00059076A077B0770F41CA61BA6DF91CF9133
:1003C0001F91FF90EF90DF90CF90BF90AF909F90E4
:1003D0008F90089582E090E09CA78BA7C9AADAAA23
:1003E000EBAAFCAAEBCF8E819F81B0E0A0E084173E
:1003F0009507A607B70710F781E08A87EF89F88D80
:10040000309709F00995E98DFA8D309709F0099533
:10041000EB8DFC8D309719F08D8D9E8D0995EDA19A
:10042000FEA1309709F00995EFA1F8A5309719F0D2
:1004300089A59AA5099586E090E0CECF4230510576
:1004400009F044C049895A89452B21F44B895C89BC
:10045000452B99F04DA55EA56FA578A946015701DA
:10046000841A950AA60AB70A4C815D8170E060E0A3
:10047000481559056A057B0570F4EB85FC853097B6
:1004800009F00995ED85FE85309709F495CF8F85A4
:100490009889099591CF2817390709F08FCF89A935
:1004A0009AA9ABA9BCA9B701A601481B590B6A0BB5
:1004B0007B0B8A819B81B0E0A0E084179507A6079B
:1004C000B70708F07BCF83E090E050CF4330510571
:1004D00039F52817390709F471CF8DA59EA5AFA569
:1004E000B8A9B701A601481B590B6A0B7B0B8A817F
:1004F0009B81B0E0A0E084179507A607B70708F036
:100500005DCFE989FA89309709F00995EB89FC8973
:10051000309719F08D899E8909951CA61BA65ECF80
:100520004630510509F04ACF2817390769F01A8675
:10053000EF8DF8A1309709F00995E9A1FAA130975C
:1005400061F38BA19CA1E8CF81E08A87EDA1FEA198
:10055000309709F00995EFA1F8A5309709F42ECF4F
:1005600089A59AA5DF91CF911F91FF90EF90DF9021
:10057000CF90BF90AF909F908F900994EF92FF9291
:100580000F931F93CF93DF93CBE0D1E08DE1E82E63
:1005900081E0F82E099118E0602F661F6627661F1C
:1005A0008BE00E94AA00000F61E08DE00E94AA008B
:1005B00060E08DE00E94AA00115071F7EC16FD0674
:1005C00049F78BEC97E00197F1F7DF91CF911F91FD
:1005D0000F91FF90EF9008950F931F93CF93DF93A8
:1005E000C82FD0E00DE111E0EBE0F1E0C1930E1770
:1005F0001F07E1F70E94BE022197B0F71092010198
:1006000010920001DF91CF911F910F9108950F93E8
:100610001F93CF93DF93D0E0C0E0082F10E0C01706
:10062000D1075CF4EBE0F1E0C19381E0ED31F80734
:10063000D9F70E94BE022196F2CF81E0809301019A
:10064000DF91CF911F910F91089580910001882330
:1006500031F084E60E94EC0210920001089584E6D5
:100660000E94070381E08093000108950C94250304
:1006700080910101882319F084E60C94EC0288E251
:100680000C9407030C943803FF920F931F93CF939E
:10069000DF9380910001882319F084E60E94EC0228
:1006A00080910101882319F088E20E94EC020BE09E
:1006B00011E0E801F12CF8820E94BE0260E070E0D7
:1006C000CB010E943901F394F39486E6F812F3CF3C
:1006D0002196E1E0CD31DE0769F760E375E780E060
:1006E00090E00E94390184E6F82EF801F0820E9421
:1006F000BE0260E070E0CB010E943901FA94FA94E6
:10070000FEEFFF12F2CF0F5F1F4FC017D10759F74F
:100710001092010110920001DF91CF911F910F9172
:10072000FF900895FF920F931F93CF93DF938091D3
:100730000001882319F084E60E94EC0280910101F7
:10074000882319F088E20E94EC020BE011E0E80136
:10075000F12CF98A0E94BE02F394F39484E6F81215
:10076000F8CF2197E0E0C93FDE0791F760E375E736
:1007700080E090E00E94390184E6F82EF801F18AC9
:100780000E94BE02FA94FA94FEEFFF12F7CF0150D6
:100790001109C017D10781F71092010110920001D1
:1007A000DF91CF911F910F91FF9008951F920F92AB
:1007B0000FB60F9211242F933F938F939F93AF9374
:1007C000BF938091030190910401A0910501B09124
:1007D00006013091020123E0230F2D3758F50196D1
:1007E000A11DB11D20930201809303019093040188
:1007F000A0930501B0930601809107019091080133
:10080000A0910901B0910A010196A11DB11D80932B
:10081000070190930801A0930901B0930A01BF91C9
:10082000AF919F918F913F912F910F900FBE0F909D
:100830001F90189526E8230F0296A11DB11DD2CF57
:10084000789484B5826084BD84B5816084BD85B5AB
:10085000826085BD85B5816085BD80916E008160B7
:1008600080936E001092810080918100826080935D
:10087000810080918100816080938100809180005F
:100880008160809380008091B10084608093B1008A
:100890008091B00081608093B00080917A00846084
:1008A00080937A0080917A00826080937A008091B0
:1008B0007A00816080937A0080917A0080688093CA
:1008C0007A001092C10061E08DE00E94D80061E0E2
:1008D0008BE00E94D80060E08DE00E94AA008BECC3
:1008E00097E00197F1F7EBE0F1E08DE191E01192F3
:1008F0008E179F07E1F70E94BE0282E493E0909377
:100900005E0180935D0186E393E0909364018093A0
:10091000630182E993E090936C0180936B0188E31B
:1009200093E0909329018093280185E293E09093CE
:100930002F0180932E0184E493E0909337018093FC
:100940003601C0E0D0E082E591E00E946C018DE1CB
:1009500091E00E946C0162E370E080E090E00E9410
:100960003901209781F30E940000EDCFEF92FF92B2
:100970000F931F93CF93DF93E2E5F1E082E3E82E3C
:10098000F12CF382E28208E512E015830483C8EEBD
:10099000D3E0D783C68312861486138616861586FF
:1009A000108A1786128A118A148A138A168A158A5F
:1009B000108E178A128E118E148E138E168E158E2F
:1009C00010A2178E12A211A216A215A210A617A28B
:1009D00012A611A614A613A680E190E0918380834D
:1009E0001186108662E00E94D800EDE1F1E0F3820A
:1009F000E28215830483D783C68312861486138606
:100A000016861586108A1786128A118A148A138A06
:100A1000168A158A108E178A128E118E148E138ED6
:100A2000168E158E10A2178E12A211A216A215A252
:100A300010A617A212A611A614A613A68FE090E086
:100A4000918380831186108662E0DF91CF911F91A0
:100A50000F91FF90EF900C94D800EE0FFF1F0590C0
:0A0A6000F491E02D0994F894FFCF03
:00000001FF
